:020000040000FA
:0600000027EF01F01200E1
:020006001200E6
:0600080079EF00F0120088
:02000E000100EF
:0C001000780200006C00000001000000FD
:04001C007F0ED36E12
:10002000C168926A9368360EC66EC56A140EC86EB1
:10003000C79EC78C9E9E9D86F28CF28E8982899087
:1000400000016C5154E0FF0E00016B5D21E1805016
:10005000010B02E0899001D08980320EE66E17EC28
:1000600001F0E5528050010B02E0899001D08980B7
:10007000320EE66E17EC01F0E5528050010B02E003
:10008000899001D08980320EE66E17EC01F0E552BE
:10009000660E00016B5D27E18050010B02E0899044
:1000A00001D08980320EE66E17EC01F0E5528050E7
:1000B000010B02E0899001D08980320EE66E17ECC8
:1000C00001F0E5528050010B02E0899001D0898057
:1000D000320EE66E17EC01F0E5528050010B02E0A3
:1000E000899001D0898000016B6B00016C6BA8D7EF
:1000F0001200DACFE4FFE2CFDAFFE6529EB29E9220
:100100009EA642D0C750010B016EC750200B200A9B
:1001100001E0010E006EC750040B040A01E0010E5D
:100120000014011403E0C9CF6AF09E96C750010B7A
:10013000016EC750200B01E0010E006EC750040B8A
:10014000040A01E0010E0014011409E0C9CF6BF0AC
:100150008050020B02E0899201D089829E96C7A44A
:100160000CD0140EC96EC688C96EC6888050020BAA
:1001700002E0899201D089829E96C69EC69CC6885E
:100180009E960001010E6C6FE552E5CFDAFF11007B
:100190000E0EF66E000EF76E000EF86E00010900EE
:1001A000F550656F0900F550666F03E1656701D092
:1001B0003DD00900F550606F0900F550616F0900EE
:1001C000F550626F09000900F550E96E0900F5501D
:1001D000EA6E090009000900F550636F0900F55047
:1001E000646F09000900F6CF67F0F7CF68F0F8CF29
:1001F00069F060C0F6FF61C0F7FF62C0F8FF000160
:10020000635302E1645307E00900F550EE6E6307A3
:10021000F8E26407F9D767C0F6FF68C0F7FF69C066
:0E022000F8FF00016507000E665BBFD71200F5
:02022E00FF0EC1
:10023000E350046E480E01D04C0EE76EE72EFED759
:0E024000E76AE72EFED7042EF7D70000120063
:02024E0013EEAD
:1002500000F023EE00F0F86A039CC8EC00F003EC19
:0A02600000F00EEC00F0FBD71200D6
:06026A0000EE00F00F0E93
:08027000EE6AEA62FDD71200FC
:010278000085
:020000040030CA
:0100000024DB
:0100010008F6
:010002001FDE
:010003001EDE
:010006008178
:01000900C036
:00000001FF
