:020000040000FA
:0600000089EF02F012007E
:020006000000F8
:08000800D9CFE6FFE1CFD9FFDB
:10001000020EE126010EDE6EDD6ADECF00F0DDCFDE
:1000200001F0FD0EDBCF02F0FE0EDBCF03F001503E
:100030000318E8AE02D0033404D00250005C035031
:10004000015805E2DF2A010E01E3DB2AE6D7020EA2
:10005000E15C02E2E16AE552E16EE552E7CFD9FFE9
:1000600012000F0EC16E936A8A6A12008A92030E02
:10007000E66EE66AC9DFE552E5528A82030EE66E55
:10008000E66AC2DFE552E5528A92030EE66EE66A40
:10009000BBDFE552E5521200D9CFE6FFE1CFD9FF31
:1000A000060EE66EE66AB0DFE552E552FE0EDB5064
:1000B000F00B00016A6F0F0E8A146A118A6EFC0E33
:1000C000DB50E8B08A80E8A08A90D0DFFE0EDB50DB
:1000D0000F0B100DF3CF6BF00F0E8A1400016B1194
:1000E0008A6EFC0EDB50E8B08A80E8A08A90BEDF02
:1000F000E552E7CFD9FF1200000EE66EE66A010E68
:10010000E66ECADFE552E552E5520F0EE66EE66A8C
:100110007BDFE552E5521200A4DF000EE66EE66AD0
:10012000330EE66EB9DFE552E552E552000EE66E9B
:10013000E66A320EE66EB0DFE552E552E552000E99
:10014000E66EE66A280EE66EA7DFE552E552E55256
:10015000000EE66EE66A0C0EE66E9EDFE552E55294
:10016000E552000EE66EE66A060EE66E95DFE55293
:10017000E552E552000EE66EE66A060EE66E8CDF8C
:10018000E552E552E5527CEF00F0D9CFE6FFE1CF32
:10019000D9FF030EE126DE6ADD6ADECF00F0DDCF97
:1001A00001F000C0E6FF01C0E6FFFD0EDBCFE6FF79
:1001B000FE0EDBCFE6FF97EC02F0E552E552E5528A
:1001C000E7CF01F0E552E7CF00F0F3CF02F0F4CF34
:1001D00003F00250005C035001582BE2FD0EDBCF10
:1001E00000F0FE0EDBCF01F0DE500024E96EDD50A2
:1001F0000120EA6E020EEFCFDBFFDB500A080AE1B6
:10020000000EE66EE66AC00EE66E46DFE552E55287
:10021000E5520AD0010EE66EE66A020EDBCFE6FF7B
:100220003BDFE552E552E552DF2A010E01E3DB2A0E
:10023000B4D7030EE15C02E2E16AE552E16EE552F9
:10024000E7CFD9FF1200D9CFE6FFE1CFD9FF300EBB
:10025000E126D9CFE9FFDACFEAFF430EEE6E720E48
:10026000EE6E6F0EEE6E740EEE6E610EEE6E200E82
:10027000EE6E6D0EEE6E750EEE6E730EEE6E740E0D
:10028000EE6E0A0EEE6E640EEE6E690EEE6E650E8A
:10029000EE6E210EEE6EEE6A190EE66E72EC02F054
:1002A000E5523ADF00016E6B6F6B6C6B6D6B6E51DC
:1002B0006F1125E1D950100FE66E000EDA20E66EC0
:1002C0006CC0E6FF6DC0E6FF89EC01F0E552E55237
:1002D000E552E552D950100FE66E000EDA20E66EB8
:1002E00054DFE552E5528A74190EE66E72EC02F0A4
:1002F000E55202DF00016C2B000E6D23D8D7300EC3
:10030000E15C02E2E16AE552E16EE552E7CFD9FF36
:020310001200D9
:0E031200D9CFE6FFDACFE6FFFA0EE3CFD9FF30
:10032000FB0EE3CFDAFFFD0EE35209E72D0EDE6E82
:10033000FC0EE31EE32AFD0ED8B4E306E31EE652EC
:10034000E652E652FD0EE124E76EFF0EE220E46E77
:10035000E652F70EE3CFE6FFF70EE3CFE6FFF9EC48
:1003600001F0F90EE124E96EFF0EE220EA6EE9ECFD
:1003700001F00AE1E6EC01F009E1E9EC01F008E145
:10038000E6EC01F007E108D0F4EC01F0EFEC01F04D
:10039000F4EC01F0EFEC01F0F4EC01F0DE6AF90EA0
:1003A000E126FF0EE222FF0EE3CFDAFFE552FF0E59
:1003B000E3CFD9FFE552FC0EE124E96EFF0EE22007
:1003C000EA6EEECFF3FFEFCFF4FF1200EF380F0B22
:1003D0001200EF500F0B02E1EE52D8841200EF38FA
:1003E0000F0B300FDE6E1200EE500F0B300FDE6E73
:1003F0001200FC0EE3CFE9FFFD0EE3CFEAFF100E83
:10040000E66EEE6AEE6AEF6AD890FD0EE336FE0EF7
:10041000E336ED36ED36EF36FF0EE30609E01AEC73
:1004200002F0EE521AEC02F0EE521AEC02F0EDD7A6
:10043000E56E1200030EEF24E8B6EF6E300EEF24E7
:06044000E8BEEF6E000CA7
:0A044600060EF66E000EF76E000EB3
:10045000F86E00010900F550656F0900F550666FF0
:1004600003E1656701D03DD00900F550606F0900D8
:10047000F550616F0900F550626F09000900F550F1
:10048000E96E0900F550EA6E090009000900F5500F
:10049000636F0900F550646F09000900F6CF67F03B
:1004A000F7CF68F0F8CF69F060C0F6FF61C0F7FFE2
:1004B00062C0F8FF0001635302E1645307E00900E2
:1004C000F550EE6E6307F8E26407F9D767C0F6FFF0
:1004D00068C0F7FF69C0F8FF00016507000E665BA2
:0404E000BFD7120070
:0C04E400FF0EE350076EEF0E01D0F30E88
:1004F000E76EE72E79EF02F00C0E066EE76AE72E44
:100500007FEF02F0062E7EEF02F0072E77EF02F06B
:020510001200D7
:0E05120013EE00F023EE00F0F86A059C23ECD7
:0E05200002F0ACEC02F023EC01F0FBD712006D
:02052E00FE0EBF
:10053000E3CFE9FFFF0EE3CFEAFFF36AF46AEE527E
:0A05400003E0F34AF42AFBD712008F
:06054A0000EE00F00F0EB0
:08055000EE6AEA62FDD7120019
:0205580012008F
:020000040030CA
:0100000024DB
:0100010008F6
:010002001FDE
:010003001EDE
:010006008178
:01000900C036
:00000001FF
