:020000040000FA
:06000000D1EF00F0120038
:020006001200E6
:0600080047EF00F01200BA
:02000E000100EF
:0C001000CC0100006E00000001000000A8
:04001C007F0ED36E12
:100020000F0EC16E926A9368826A8B6A946A360E6A
:10003000C66EC56A140EC86EC79EC78C9D86F28CAC
:10004000F28E89828990F50E8B6E00016A6B8B802F
:100050009E9600016E5119E0100E00016A5D08E1E4
:10006000070E8B6E8050020B02E0899201D08982CC
:10007000110E6A5D08E1050E8B6E8050010B02E0E7
:10008000899001D0898000016E6BE3D71200DACF2E
:10009000E4FFE2CFDAFFE6529EB29E929EA62ED0F9
:1000A000C750010B016EC750200B200A01E0010E62
:1000B000006EC750040B040A01E0010E0014011485
:1000C00003E0C9CF6CF09E96C750010B016EC7507C
:1000D000200B01E0010E006EC750040B040A01E082
:1000E000010E0014011403E0C9CF6AF09E96C69E6B
:1000F000C69CC6889E960001010E6E6FE552E5CF44
:04010000DAFF110011
:0C0104000E0EF66E000EF76E000EF86E88
:1001100000010900F550656F0900F550666F03E1B5
:10012000656701D03DD00900F550606F0900F550BA
:10013000616F0900F550626F09000900F550E96E22
:100140000900F550EA6E090009000900F550636FD7
:100150000900F550646F09000900F6CF67F0F7CF8A
:1001600068F0F8CF69F060C0F6FF61C0F7FF62C0C9
:10017000F8FF0001635302E1645307E00900F55002
:10018000EE6E6307F8E26407F9D767C0F6FF68C050
:10019000F7FF69C0F8FF00016507000E665BBFD777
:0201A00012004B
:0E01A20013EE00F023EE00F0F86A039C82ECEE
:0E01B00000F003EC00F00EEC00F0FBD71200A4
:0201BE0000EE51
:0C01C00000F00F0EEE6AEA62FDD712009C
:0101CC000032
:020000040030CA
:0100000024DB
:0100010008F6
:010002001FDE
:010003001EDE
:010006008178
:01000900C036
:00000001FF
